{
  "contractName": "LandRegistry",
  "abi": [
    {
      "anonymous": false,
      "inputs": [
        {
          "indexed": false,
          "internalType": "uint256",
          "name": "id",
          "type": "uint256"
        },
        {
          "indexed": false,
          "internalType": "string",
          "name": "location",
          "type": "string"
        },
        {
          "indexed": false,
          "internalType": "uint256",
          "name": "area",
          "type": "uint256"
        },
        {
          "indexed": false,
          "internalType": "address",
          "name": "owner",
          "type": "address"
        }
      ],
      "name": "LandRegistered",
      "type": "event"
    },
    {
      "anonymous": false,
      "inputs": [
        {
          "indexed": false,
          "internalType": "uint256",
          "name": "id",
          "type": "uint256"
        },
        {
          "indexed": false,
          "internalType": "address",
          "name": "previousOwner",
          "type": "address"
        },
        {
          "indexed": false,
          "internalType": "address",
          "name": "newOwner",
          "type": "address"
        }
      ],
      "name": "OwnershipTransferred",
      "type": "event"
    },
    {
      "inputs": [],
      "name": "landCount",
      "outputs": [
        {
          "internalType": "uint256",
          "name": "",
          "type": "uint256"
        }
      ],
      "stateMutability": "view",
      "type": "function"
    },
    {
      "inputs": [
        {
          "internalType": "uint256",
          "name": "",
          "type": "uint256"
        }
      ],
      "name": "lands",
      "outputs": [
        {
          "internalType": "uint256",
          "name": "id",
          "type": "uint256"
        },
        {
          "internalType": "string",
          "name": "location",
          "type": "string"
        },
        {
          "internalType": "uint256",
          "name": "area",
          "type": "uint256"
        },
        {
          "internalType": "address",
          "name": "owner",
          "type": "address"
        },
        {
          "internalType": "bool",
          "name": "isRegistered",
          "type": "bool"
        }
      ],
      "stateMutability": "view",
      "type": "function"
    },
    {
      "inputs": [
        {
          "internalType": "uint256",
          "name": "_id",
          "type": "uint256"
        },
        {
          "internalType": "string",
          "name": "_location",
          "type": "string"
        },
        {
          "internalType": "uint256",
          "name": "_area",
          "type": "uint256"
        }
      ],
      "name": "registerLand",
      "outputs": [],
      "stateMutability": "nonpayable",
      "type": "function"
    },
    {
      "inputs": [
        {
          "internalType": "uint256",
          "name": "_id",
          "type": "uint256"
        },
        {
          "internalType": "address",
          "name": "_newOwner",
          "type": "address"
        }
      ],
      "name": "transferOwnership",
      "outputs": [],
      "stateMutability": "nonpayable",
      "type": "function"
    },
    {
      "inputs": [
        {
          "internalType": "uint256",
          "name": "_id",
          "type": "uint256"
        }
      ],
      "name": "getLandDetails",
      "outputs": [
        {
          "internalType": "uint256",
          "name": "",
          "type": "uint256"
        },
        {
          "internalType": "string",
          "name": "",
          "type": "string"
        },
        {
          "internalType": "uint256",
          "name": "",
          "type": "uint256"
        },
        {
          "internalType": "address",
          "name": "",
          "type": "address"
        }
      ],
      "stateMutability": "view",
      "type": "function"
    }
  ],
  "bytecode": "0x608060405234801561001057600080fd5b50610e3a806100206000396000f3fe608060405234801561001057600080fd5b50600436106100575760003560e01c806329507f731461005c57806398f1c34014610078578063d7bce65814610094578063e261f1e5146100b2578063fe0cb7dc146100e6575b600080fd5b6100766004803603810190610071919061086f565b610119565b005b610092600480360381019061008d91906108ab565b6102b1565b005b61009c61045b565b6040516100a99190610abe565b60405180910390f35b6100cc60048036038101906100c79190610846565b610461565b6040516100dd959493929190610b5c565b60405180910390f35b61010060048036038101906100fb9190610846565b61054c565b6040516101109493929190610b10565b60405180910390f35b60008083815260200190815260200160002060030160149054906101000a900460ff1661017b576040517f08c379a000000000000000000000000000000000000000000000000000000000815260040161017290610a5e565b60405180910390fd5b3373ffffffffffffffffffffffffffffffffffffffff1660008084815260200190815260200160002060030160009054906101000a900473ffffffffffffffffffffffffffffffffffffffff1673ffffffffffffffffffffffffffffffffffffffff161461021e576040517f08c379a000000000000000000000000000000000000000000000000000000000815260040161021590610a9e565b60405180910390fd5b8060008084815260200190815260200160002060030160006101000a81548173ffffffffffffffffffffffffffffffffffffffff021916908373ffffffffffffffffffffffffffffffffffffffff1602179055507f16b85f49bf01212961345d3016c9a531894accf62eb7680f2045d79185cc0ec08233836040516102a593929190610ad9565b60405180910390a15050565b60008084815260200190815260200160002060030160149054906101000a900460ff1615610314576040517f08c379a000000000000000000000000000000000000000000000000000000000815260040161030b90610a7e565b60405180910390fd5b6040518060a001604052808481526020018381526020018281526020013373ffffffffffffffffffffffffffffffffffffffff1681526020016001151581525060008085815260200190815260200160002060008201518160000155602082015181600101908051906020019061038c929190610711565b506040820151816002015560608201518160030160006101000a81548173ffffffffffffffffffffffffffffffffffffffff021916908373ffffffffffffffffffffffffffffffffffffffff16021790555060808201518160030160146101000a81548160ff0219169083151502179055509050506001600081548092919061041490610cef565b91905055507f53a976a9b9d61df3bb2e08e33448938aea67fb03572279eb18ed48cdd6fad04e8383833360405161044e9493929190610b10565b60405180910390a1505050565b60015481565b600060205280600052604060002060009150905080600001549080600101805461048a90610cbd565b80601f01602080910402602001604051908101604052809291908181526020018280546104b690610cbd565b80156105035780601f106104d857610100808354040283529160200191610503565b820191906000526020600020905b8154815290600101906020018083116104e657829003601f168201915b5050505050908060020154908060030160009054906101000a900473ffffffffffffffffffffffffffffffffffffffff16908060030160149054906101000a900460ff16905085565b6000606060008060008086815260200190815260200160002060030160149054906101000a900460ff166105b5576040517f08c379a00000000000000000000000000000000000000000000000000000000081526004016105ac90610a5e565b60405180910390fd5b60008060008781526020019081526020016000206040518060a0016040529081600082015481526020016001820180546105ee90610cbd565b80601f016020809104026020016040519081016040528092919081815260200182805461061a90610cbd565b80156106675780601f1061063c57610100808354040283529160200191610667565b820191906000526020600020905b81548152906001019060200180831161064a57829003601f168201915b50505050508152602001600282015481526020016003820160009054906101000a900473ffffffffffffffffffffffffffffffffffffffff1673ffffffffffffffffffffffffffffffffffffffff1673ffffffffffffffffffffffffffffffffffffffff1681526020016003820160149054906101000a900460ff161515151581525050905080600001518160200151826040015183606001519450945094509450509193509193565b82805461071d90610cbd565b90600052602060002090601f01602090048101928261073f5760008555610786565b82601f1061075857805160ff1916838001178555610786565b82800160010185558215610786579182015b8281111561078557825182559160200191906001019061076a565b5b5090506107939190610797565b5090565b5b808211156107b0576000816000905550600101610798565b5090565b60006107c76107c284610be7565b610bb6565b9050828152602081018484840111156107df57600080fd5b6107ea848285610c7b565b509392505050565b60008135905061080181610dd6565b92915050565b600082601f83011261081857600080fd5b81356108288482602086016107b4565b91505092915050565b60008135905061084081610ded565b92915050565b60006020828403121561085857600080fd5b600061086684828501610831565b91505092915050565b6000806040838503121561088257600080fd5b600061089085828601610831565b92505060206108a1858286016107f2565b9150509250929050565b6000806000606084860312156108c057600080fd5b60006108ce86828701610831565b935050602084013567ffffffffffffffff8111156108eb57600080fd5b6108f786828701610807565b925050604061090886828701610831565b9150509250925092565b61091b81610c33565b82525050565b61092a81610c45565b82525050565b600061093b82610c17565b6109458185610c22565b9350610955818560208601610c8a565b61095e81610dc5565b840191505092915050565b6000610976601783610c22565b91507f4c616e64206973206e6f7420726567697374657265642e0000000000000000006000830152602082019050919050565b60006109b6601b83610c22565b91507f4c616e6420697320616c726561647920726567697374657265642e00000000006000830152602082019050919050565b60006109f6602183610c22565b91507f4f6e6c7920746865206f776e65722063616e207472616e73666572206c616e6460008301527f2e000000000000000000000000000000000000000000000000000000000000006020830152604082019050919050565b610a5881610c71565b82525050565b60006020820190508181036000830152610a7781610969565b9050919050565b60006020820190508181036000830152610a97816109a9565b9050919050565b60006020820190508181036000830152610ab7816109e9565b9050919050565b6000602082019050610ad36000830184610a4f565b92915050565b6000606082019050610aee6000830186610a4f565b610afb6020830185610912565b610b086040830184610912565b949350505050565b6000608082019050610b256000830187610a4f565b8181036020830152610b378186610930565b9050610b466040830185610a4f565b610b536060830184610912565b95945050505050565b600060a082019050610b716000830188610a4f565b8181036020830152610b838187610930565b9050610b926040830186610a4f565b610b9f6060830185610912565b610bac6080830184610921565b9695505050505050565b6000604051905081810181811067ffffffffffffffff82111715610bdd57610bdc610d96565b5b8060405250919050565b600067ffffffffffffffff821115610c0257610c01610d96565b5b601f19601f8301169050602081019050919050565b600081519050919050565b600082825260208201905092915050565b6000610c3e82610c51565b9050919050565b60008115159050919050565b600073ffffffffffffffffffffffffffffffffffffffff82169050919050565b6000819050919050565b82818337600083830152505050565b60005b83811015610ca8578082015181840152602081019050610c8d565b83811115610cb7576000848401525b50505050565b60006002820490506001821680610cd557607f821691505b60208210811415610ce957610ce8610d67565b5b50919050565b6000610cfa82610c71565b91507fffffffffffffffffffffffffffffffffffffffffffffffffffffffffffffffff821415610d2d57610d2c610d38565b5b600182019050919050565b7f4e487b7100000000000000000000000000000000000000000000000000000000600052601160045260246000fd5b7f4e487b7100000000000000000000000000000000000000000000000000000000600052602260045260246000fd5b7f4e487b7100000000000000000000000000000000000000000000000000000000600052604160045260246000fd5b6000601f19601f8301169050919050565b610ddf81610c33565b8114610dea57600080fd5b50565b610df681610c71565b8114610e0157600080fd5b5056fea2646970667358221220b0a9ec26831114867fe4623ea042b605ab06f121ba51325f39142e30ec3abc5e64736f6c63430008000033",
  "immutableReferences": {},
  "source": "// SPDX-License-Identifier: MIT\r\npragma solidity ^0.8.0;\r\n\r\ncontract LandRegistry {\r\n    struct Land {\r\n        uint256 id;\r\n        string location;\r\n        uint256 area;\r\n        address owner;\r\n        bool isRegistered;\r\n    }\r\n\r\n    mapping(uint256 => Land) public lands;\r\n    uint256 public landCount;\r\n\r\n    event LandRegistered(uint256 id, string location, uint256 area, address owner);\r\n    event OwnershipTransferred(uint256 id, address previousOwner, address newOwner);\r\n\r\n    // Register a new land parcel\r\n    function registerLand(uint256 _id, string memory _location, uint256 _area) public {\r\n        require(!lands[_id].isRegistered, \"Land is already registered.\");\r\n        lands[_id] = Land(_id, _location, _area, msg.sender, true);\r\n        landCount++;\r\n        emit LandRegistered(_id, _location, _area, msg.sender);\r\n    }\r\n\r\n    // Transfer ownership of a land parcel\r\n    function transferOwnership(uint256 _id, address _newOwner) public {\r\n        require(lands[_id].isRegistered, \"Land is not registered.\");\r\n        require(lands[_id].owner == msg.sender, \"Only the owner can transfer land.\");\r\n        lands[_id].owner = _newOwner;\r\n        emit OwnershipTransferred(_id, msg.sender, _newOwner);\r\n    }\r\n\r\n    // Get land details\r\n    function getLandDetails(uint256 _id) public view returns (uint256, string memory, uint256, address) {\r\n        require(lands[_id].isRegistered, \"Land is not registered.\");\r\n        Land memory land = lands[_id];\r\n        return (land.id, land.location, land.area, land.owner);\r\n    }\r\n}",
  "sourcePath": "C:\\Users\\shubh\\Intrenship\\contracts\\MyContract.sol",
  "compiler": {
    "name": "solc",
    "version": "0.8.0+commit.c7dfd78e.Emscripten.clang"
  },
  "schemaVersion": "3.4.16",
  "updatedAt": "2025-02-05T16:03:31.626Z",
  "devdoc": {
    "kind": "dev",
    "methods": {},
    "version": 1
  },
  "userdoc": {
    "kind": "user",
    "methods": {},
    "version": 1
  }
}